:020000040801F1
:100000000000032061F1010855F8010849F10108D9
:1000100057F8010859F801085BF8010800000000D2
:10002000000000000000000000000000419C0108EA
:100030005DF8010800000000D19C01085FF801088C
:1000400085F2010889F2010839F3010875BF01083A
:100050009DF20108A1F2010811D9010869D901082E
:10006000A5F20108A9F20108ADF201083DF301086B
:1000700041F3010845F3010849F301084DF3010874
:1000800051F3010855F3010859F301085DF3010824
:1000900061F30108B1F20108B5F20108B9F20108F3
:1000A000BDF20108C1F2010889330208C5F2010856
:1000B000C9F20108CDF20108D1F20108D5F2010818
:1000C000D9F20108DDF20108E1F20108E5F20108C8
:1000D000E9F20108CDEE0108EDF20108F1F20108A4
:1000E000F5F201088DF2010865F3010811F301082A
:1000F00015F3010819F301081DF3010869F301085C
:1001000021F3010825F3010829F301082DF3010863
:1001100031F3010849FA01086DF3010835F30108CC
:1001200071F3010875F301087DE601088DE6010809
:1001300079F301087DF3010881F3010885F30108D3
:1001400089F301088DF3010891F3010895F3010883
:1001500099F301089DF30108A1F30108A5F3010833
:10016000A9F30108ADF30108B1F30108B5F30108E3
:10017000B9F30108552B0108BDF30108C1F30108CB
:1001800091F20108C5F30108C9F30108CDF3010894
:10019000D1F30108D5F30108D9F30108DDF3010813
:1001A00095F2010899F20108E1F30108000000004E
:1001B000000000000000000000000000000000003F
:1001C000000000000000000000000000000000002F
:1001D000000000000000000000000000C010030844
:1001E0005FF8E0F110B5054C237833B9044B13B137
:1001F0000448AFF300800123237010BDE00200200B
:1002000000000000D40D030808B5034B1BB10349DF
:100210000348AFF3008008BD00000000E4020020A6
:10022000D40D0308424D761D00000000000076004A
:10023000000028000000FA0000003A000000010061
:10024000040000000000001D0000C40E0000C40EE9
:10025000000000000000000000000000000000009E
:10026000800000800000008080008000000080008E
:1002700080008080000080808000C0C0C00000003E
:10028000FF0000FF000000FFFF00FF000000FF0074
:10029000FF00FFFF0000FFFFFF00FFFFFFFFFFFF6A
:1002A000FFFFFFFFFFFFFFFFFFFFFFFFFFFFFFFF5E
:1002B000FFFFFFFFFFFFFFFF7777FFFFFFFFFFFF5E
:1002C000FFFFFFFFFFFFFFFFFFFFFFFFFFFFFFFF3E
:1002D000FFFFFFFFFFFFFFFFFFFFFFFFFFFFFFFF2E
:1002E000FFFFFFFFFFFFFFFFFFFFFFFFFFFFFFFF1E
:1002F000FFFFFFFFFFFFFFFFFFFFFFFFFFFFFFFF0E
:10030000FFFFFFFFFFFFFFFFFFFFFFFFFFFFFFFFFD
:10031000FFFFFFFFFFFFFF000000FFFFFFFFFFFFEA
:10032000FFFFFFFFFFFFFFFFFFFFFFFFFFFFFFFFDD
:10033000FFFFFFFFFFFFFFF77FF7FFFFFFFFFFFF5D
:10034000FFFFFFFFFFFFFFFFFFFFFFFFFFFFFFFFBD
:10035000FFFFFFFFFFFFFFFFFFFFFFFFFFFFFFFFAD
:10036000FFFFFFFFFFFFFFFFFFFFFFFFFFFFFFFF9D
:10037000FFFFFFFFFFFFFFFFFFFFFFFFFFFFFFFF8D
:10038000FFFFFFFFFFFFFFFFFFFFFFFFFFFFFFFF7D
:10039000FFFFFFFFFFFFFF000000FFFFFFFFFFFF6A
:1003A000FFFFFFFFFFFFFFFFFFFFFFFFFFFFFFFF5D
:1003B000FFFFFFFFFFFFFF77FFF7FFFFFFFFFFFFDD
:1003C000FFFFFFFFFFFFFFFFFFFFFFFFFFFFFFFF3D
:1003D000FFFFFFFFFFFFFFFFFFFFFFFFFFFFFFFF2D
:1003E000FFFFFFFFFFFFFFFFFFFFFFFFFFFFFFFF1D
:1003F000FFFFFFFFFFFFFFFFFFFFFFFFFFFFFFFF0D
:10040000FFFFFFFFFFFFFFFFFFFFFFFFFFFFFFFFFC
:10041000FFFFFFFFFFFFFF000000FFFFFFFFFFFFE9
:10042000FFFFFFFFFFFFFFFFFFFFFFFFFFFFFFFFDC
:10043000FFFFFFFFFFFFF77FFF77FFFFFFFFFFFFDC
:10044000FFFFFFFFFFFFFFFFFFFFFFFFFFFFFFFFBC
:10045000FFFFFFFFFFFFFFFFFFFFFFFFFFFFFFFFAC
:10046000FFFFFFFFFFFFFFFFFFFFFFFFFFFFFFFF9C
:10047000FFFFFFFFFFFFFFFFFFFFFFFFFFFFFFFF8C
:10048000FFFFFFFFFFFFFFFFFFFFFFFFFFFFFFFF7C
:10049000FFFFFFFFFFFFFF000000FFFFFFFFFFFF69
:1004A000FFFFFFFF7777FFFFFFFFFFFFFFFFFFFF6C
:1004B000FFFFFFFFFFFF77FFFF7FFFFFFFFFFFFF54
:1004C000FFFFFFFFFFFFFFFFFFFFFFFFFFFFFFFF3C
:1004D000FFFFFFFFFFFFFFFFFFFFFFFFFFFFFFFF2C
:1004E000FFFFFFFFFFFFFFFFFFFFFFFFFFFFFFFF1C
:1004F000FFFFFFFFFFFFFFFFFFFFFFFFFFFFFFFF0C
:10050000FFFFFFFFFFFFFFFFFFFFFFFFFFFFFFFFFB
:10051000FFFFFFFFFFFFFF000000FFFFFFFFFFFFE8
:10052000FFFFFFF77FF777FFFFFFFFFFFFFFFFFFF3
:10053000FFFFFFFFFFF77FFFF77FFFFFFFFFFFFFDB
:10054000FFFFFFFFFFFFFFFFFFFFFFFFFFFFFFFFBB
:10055000FFFFFFFFFFFFFFFFFFFFFFFFFFFFFFFFAB
:10056000FFFFFFFFFFFFFFFFFFFFFFFFFFFFFFFF9B
:10057000FFFFFFFFFFFFFFFFFFFFFFFFFFFFFFFF8B
:10058000FFFFFFFFFFFFFFFFFFFFFFFFFFFFFFFF7B
:10059000FFFFFFFFFFFFFF000000FFFFFFFFFFFF68
:1005A000FFFFFFF7FFFFF777FFFFFFFFFFFFFFFFF3
:1005B000FFFFFFFFFF77FFFF77FFFFFFFFFFFFFF5B
:1005C000FFFFFFFFFFFFFFFFFFFFFFFFFFFFFFFF3B
:1005D000FFFFFFFFFFFFFFFFFFFFFFFFFFFFFFFF2B
:1005E000FFFFFFFFFFFFFFFFFFFFFFFFFFFFFFFF1B
:1005F000FFFFFFFFFFFFFFFFFFFFFFFFFFFFFFFF0B
:10060000FFFFFFFFFFFFFFFFFFFFFFFFFFFFFFFFFA
:10061000FFFFFFFFFFFFFF000000FFFFFFFFFFFFE7
:10062000FFFFFFF7FFFFFFF77FFFFFFFFFFFFFFF6A
:10063000FFFFFFFFF77FFFFCC7FFFFFFFFFFFFFF8D
:10064000FFFFFFFFFFFFFFFFFFFFFFFFFFFFFFFFBA
:10065000FFFFFFFFFFFFFFFFFFFFFFFFFFFFFFFFAA
:10066000FFFFFFFFFFFFFFFFFFFFFFFFFFFFFFFF9A
:10067000FFFFFFFFFFFFFFFFFFFFFFFFFFFFFFFF8A
:10068000FFFFFFFFFFFFFFFFFFFFFFFFFFFFFFFF7A
:10069000FFFFFFFFFFFFFF000000FFFFFFFFFFFF67
:1006A000FFFFFFF77FFFFFFF777FFFFFFFFFFFFFEA
:1006B000FFFFFFFF77FFFFC88CFFFFFFFFFFFFFF7C
:1006C000FFFFFFFFFFFFFFFFFFFFFFFFFFFFFFFF3A
:1006D000FFFFFFFFFFFFFFFFFFFFFFFFFFFFFFFF2A
:1006E000FFFFFFFFFFFFFFFFFFFFFFFFFFFFFFFF1A
:1006F000FFFFFFFFFFFFFFFFFFFFFFFFFFFFFFFF0A
:10070000FFFFFFFFFFFFFFFFFFFFFFFFFFFFFFFFF9
:10071000FFFFFFFFFFFFFF000000FFFFFFFFFFFFE6
:10072000FFFFFFFF7FFFFFFFFF77FFFFFFFFFFFFE1
:10073000FFFFFFF77FFFFC8888CFFFFFFFFFFFFF72
:10074000FFFFFFFFFFFFFFFFFFFFFFFFFFFFFFFFB9
:10075000FFFFFFFFFFFFFFFFFFFFFFFFFFFFFFFFA9
:10076000FFFFFFFFFFFFFFFFFFFFFFFFFFFFFFFF99
:10077000FFFFFFFFFFFFFFFFFFFFFFFFFFFFFFFF89
:10078000FFFFFFFFFFFFFFFFFFFFFFFFFFFFFFFF79
:10079000FFFFFFFFFFFFFF000000FFFFFFFFFFFF66
:1007A000FFFFFFFF7FFFFFFFFFF777FFFFFFFFFF69
:1007B000FFFFFF77FFFFFCEE88CFFFFFFFFFFFFF8C
:1007C000FFFFFFFFFFFFFFFFFFFFFFFFFFFFFFFF39
:1007D000FFFFFFFFFFFFFFFFFFFFFFFFFFFFFFFF29
:1007E000FFFFFFFFFFFFFFFFFFFFFFFFFFFFFFFF19
:1007F000FFFFFFFFFFFFFFFFFFFFFFFFFFFFFFFF09
:10080000FFFFFFFFFFFFFFFFFFFFFFFFFFFFFFFFF8
:10081000FFFFFFFFFFFFFF000000FFFFFFFFFFFFE5
:10082000FFFFFFFF77FFFFFFFFFFF77FFFFFFFFFE8
:10083000FFFFF77FFFFFFFCE8CFFFFFFFFFFFFFFF4
:10084000FFFFFFFFFFFFFFFFFFFFFFFFFFFFFFFFB8
:10085000FFFFFFFFFFFFFFFFFFFFFFFFFFFFFFFFA8
:10086000FFFFFFFFFFFFFFFFFFFFFFFFFFFFFFFF98
:10087000FFFFFFFFFFFFFFFFFFFFFFFFFFFFFFFF88
:10088000FFFFFFFFFFFFFFFFFFFFFFFFFFFFFFFF78
:10089000FFFFFFFFFFFFFF000000FFFFFFFFFFFF65
:1008A000FFFFFFFFF7FFFFFFFFFFFF77FFFFFFFFE8
:1008B000FFFF77FFFFFFF77CCFFFFFFFFFFFFFFF8B
:1008C000FFFFFFFFFFFFFFFFFFFFFFFFFFFFFFFF38
:1008D000FFFFFFFFFFFFFFFFFFFFFFFFFFFFFFFF28
:1008E000FFFFFFFFFFFFFFFFFFFFFFFFFFFFFFFF18
:1008F000FFFFFFFFFFFFFFFFFFFFFFFFFFFFFFFF08
:10090000FFFFFFFFFFFFFFFFFFFFFFFFFFFFFFFFF7
:10091000FFFFFFFFFFFFFF000000FFFFFFFFFFFFE4
:10092000FFFFFFFFF77FFFFFFFFFFFF77FFFFFFFE7
:10093000FFFF7FFFFFFFF7FFFFFFFFFFFFFFFFFF4F
:10094000FFFFFFFFFFFFFFFFFFFFFFFFFFFFFFFFB7
:10095000FFFFFFFFFFFFFFFFFFFFFFFFFFFFFFFFA7
:10096000FFFFFFFFFFFFFFFFFFFFFFFFFFFFFFFF97
:10097000FFFFFFFFFFFFFFFFFFFFFFFFFFFFFFFF87
:10098000FFFFFFFFFFFFFFFFFFFFFFFFFFFFFFFF77
:10099000FFFFFFFFFFFFFF000000FFFFFFFFFFFF64
:1009A000FFFFFFFFFF77FFFFFFFFFFFF77FFFFFF67
:1009B000FFF77FFFFFFF77FFFFFFFFFFFFFFFFFF57
:1009C000FFFFFFFFFFFFFFFFFFFFFFFFFFFFFFFF37
:1009D000FFFFFFFFFFFFFFFFFFFFFFFFFFFFFFFF27
:1009E000FFFFFFFFFFFFFFFFFFFFFFFFFFFFFFFF17
:1009F000FFFFFFFFFFFFFFFFFFFFFFFFFFFFFFFF07
:100A0000FFFFFFFFFFFFFFFFFFFFFFFFFFFFFFFFF6
:100A1000FFFFFFFFFFFFFF000000FFFFFFFFFFFFE3
:100A2000FFFFFFFFFFF7FFFFFFFFFFFFF77FFFFF66
:100A3000FF77FFFFFFFF7FFFFFFFFFFFFFFFFFFFCE
:100A4000FFFFFFFFFFFFFFFFFFFFFFFFFFFFFFFFB6
:100A5000FFFFFFFFFFFFFFFFFFFFFFFFFFFFFFFFA6
:100A6000FFFFFFFFFFFFFFFFFFFFFFFFFFFFFFFF96
:100A7000FFFFFFFFFFFFFFFFFFFFFFFFFFFFFFFF86
:100A8000FFFFFFFFFFFFFFFFFFFFFFFFFFFFFFFF76
:100A9000FFFFFFFFFFFFFF000000FFCCFFFFFFFF96
:100AA000FFFFFFFFFFF77FFFFFFFFFFFFF77FFFF66
:100AB000F77FFFFFFFF77FFFFFFFFFFFFFFFFFFF56
:100AC000FFFFFFFFFFFFFFFFFFFFFFFFFFFFFFFF36
:100AD000FFFFFFFFFFFFFFFFFFFFFFFFFFFFFFFF26
:100AE000FFFFFFFFFFFFFFFFFFFFFFFFFFFFFFFF16
:100AF000FFFFFFFFFFFFFFFFFFFFFFFFFFFFFFFF06
:100B0000FFFFFFFFFFFFFFFFFFFFFFFFFFFFFFFFF5
:100B1000FFFFFFFFFFFFFF000000FC88C77777772C
:100B200077FFFFFFFFFF77FFFFFFFFFFFFF77FFF6D
:100B3000F7FFFFFFFF77FF000FFFFFFFFFFFFF0043
:100B4000000000000FFFFFF000000000000FFFFF9B
:100B5000F00000000000FFFFF00000000000FFFFB9
:100B6000F000000000000FFF000FFFFF000000007A
:100B7000FFFFFFF000FFFFFFFFF000FFFFFF000F90
:100B8000FFFFFFF000FFF000FFFFFFFFFF000FFF80
:100B9000FF00000000000F000000C8888CFFFFFF6E
:100BA00077777777777FF7FFFFFFFFFFFFFF77FF0D
:100BB00077FFFFFFFF7FFF000FFFFFFFFFFFF0004A
:100BC0000000000000FFFF00000000000000FFFF29
:100BD0000000000000000FFFF000000000000FFF09
:100BE0000000000000000FFF000FFFF000000000F9
:100BF000FFFFFFF000FFFFFFFFF000FFFFFF000F10
:100C0000FFFFFFF000FFF000FFFFFFFFFF000FFFFF
:100C1000F000000000000F000000CEE88CFFFFFF96
:100C2000FFFFFFFF7777777FFFFFFFFFFFFFF77F74
:100C30007FFFFFFFF77FFF000FFFFFFFFFFF0000B9
:100C4000FFFFFFF0000FFF000FFFFFFFF000FFF0BE
:100C5000000FFFFFFF0000FFFFFFFFFFFFF00FFF90
:100C6000000FFFFFFFFFFFFF000FFF000FFFFFFF61
:100C7000FFFFFFF000FFFFFFFFF000FFFFFF000F8F
:100C8000FFFFFFF000FFF000FFFFFFFFFF000FFF7F
:100C9000F000FFFFFFFFFF000000FCE8CFFFFFFFB9
:100CA000FFFFFFFFFFFFF77777777FFFFFFFFF77FC
:100CB000FFFFFFFFF7FFFF000FFFFFFFFFFF000F2A
:100CC000FF7777FF000FFF000FFFFFFFF000FFF03F
:100CD00000FFFFFFFFF000FFFFFFFFFFFFF00FFF30
:100CE00000FFFFFFFFFFFFFF000FFF000F000000EE
:100CF000000FFFF000FFFFFFFFF000FFFFFF000FFE
:100D0000FFFFFFF000FFF000FFFFFFFFFF000FFFFE
:100D1000F00FFFFFFFFFFF000000FFCCFFFFFFFF12
:100D2000FFFFFFFFFFFFFFF7FFFF77788F44447758
:100D30007444FFFF77FFFF000FFFFFFF7777000787
:100D40007777FFFF000FFF000FFFFFFFF000FFF0BE
:100D500000FFFFFFFFF000FFFF00000000000FFF9B
:100D600000FFFFFFFFFFFFFF000FFF000F0000006D
:100D70000000FFF000FFFFFFFFF000FFFFFF000F8C
:100D8000FFFFFFF000FFF000FFFFFFFFFF000FFF7E
:100D9000F00FFFFFFFFFFF000000FFF777FFFFFFEF
:100DA000FFFFFFFFFFFFFFF77FFFFFF44888888802
:100DB000774444F77FFFFF000FFF777777770007CF
:100DC0007FFFFFFF000FFF000FFFFFFFF000FFF0AE
:100DD00000FFFFFFFFF000FFF00000000000FFFF3A
:100DE00000FFFFFFFFFFFFFF000FFF000FFFFFFFF0
:100DF000FF00FFF000FFFFFFFF0000FFFFFF000FFD
:100E0000FFFFFFF000FFF000FFFFFFFFFF000FFFFD
:100E1000F00FFFFFFFFFFF000000FFFFF777FFFF6E
:100E2000FFFFFFFFFFFFFFFF77FFFF444CC4777C0E
:100E300088844447FFFFFF00007777777FFF00003B
:100E4000FFFFFFF0000FFF000FFFFFFFF000FFF0BC
:100E5000000FFFFFFF0000FFF00FFFFFFFFFFFFF8E
:100E6000000FFFFFFFFFFFFF000FFF000FFFFFFF5F
:100E7000FF00FFF000FFFFFFF0000FFFFFFF000F7C
:100E8000FFFFFFF000FFF000FFFFFFFFFF000FFF7D
:100E9000F000FFFFFFFFFF000000FFFFFFF777FFFD
:100EA000FFFFFFFFFFFFFFFFF77F8444CC667666FE
:100EB000CCC888888FFFFFF00000000000FFF00022
:100EC0000000000000FFFF000F0000000000FFFF17
:100ED0000000000000000FFFF00000000000FFFF16
:100EE0000000000000000FFF000FFFF000000000F6
:100EF0000000FFF0000000000000FFF00000000014
:100F00000000FFF000FFF000FF000000FF000FFFF7
:100F1000F000000000000F000000FFFFFFFFF77768
:100F20007FFFFFFFFFFFFFFFFF78444CC667666649
:100F300066667C77888888FF0000000000FFFF005D
:100F4000000000000FFFFF000F000000000FFFFF78
:100F5000F00000000000FFFFFF0000000000FFFFA6
:100F6000F000000000000FFF000FFFFF0000000076
:100F7000000FFFF000000000000FFFF00000000075
:100F80000000FFF000FFF000FF000000FF000FFF77
:100F9000FF00000000000F000000FFFFFFFFFFF751
:100FA000777FFFFFFFFFFFFFFFF444CC66776666A5
:100FB000666677CC77777888FFFFFFFFFFFFFFFF3C
:100FC000FFFFFFFFFFFFFF000FFFFFFFFFFFFFFF20
:100FD000FFFFFFFFFFFFFFFFFFFFFFFFFFFFFFFF21
:100FE000FFFFFFFFFFFFFFFFFFFFFFFFFFFFFFFF11
:100FF000FFFFFFFFFFFFFFFFFFFFFFFFFFFF000FF0
:10100000FFFFFFFFFFFFF000FFFFFFFFFFFFFFFFFE
:10101000FFFFFFFFFFFFFF000000FFFFFFFFFFFFDD
:10102000FF7777FFFFFFFFFFFFF44CC6667666662B
:1010300066666777747FFF8888FFFFFFFFFFFFFF0B
:10104000FFFFFFFFFFFFFF000FFFFFFFFFFFFFFF9F
:10105000FFFFFFFFFFFFFFFFFFFFFFFFFFFFFFFFA0
:10106000FFFFFFFFFFFFFFFFFFFFFFFFFFFFFFFF90
:10107000FFFFFFFFFFFFFFFFFFFFFFFFFFFF000F6F
:10108000FFFFFFFFFFFFF000FFFFFFFFFFFFFFFF7E
:10109000FFFFFFFFFFFFFF000000FFFFFFFFFFFF5D
:1010A000FFFFF7777FFFFFFFFF444CC667666EEEDA
:1010B00067777677CC44FFFF77777FFFFFFFFFFFEF
:1010C000FFFFFFFFFFFFFF000FFFFFFFFFFFFFFF1F
:1010D000FFFFFFFFFFFFFFFFFFFFFFFFFFFFFFFF20
:1010E000FFFFFFFFFFFFFFFF000FFFFFFFFFFFFFFF
:1010F000FFFFFFFFFFFFFFFFFFFFFFFFFFFF000FEF
:10110000FFFFFFF000FFFF00000000000F000FFFD7
:10111000FFFFFFFFFFFFFF000000FFFFFFFFFFFFDC
:10112000FFFFFFFF7777FFFFFF444C667766E777A7
:10113000776666677444FFFFFFF77777FFFFFFFF6F
:10114000FFFFFFFFFFFFFF000FFFFFFFFFFFFFFF9E
:10115000FFFFFFFFFFFFFFFFFFFFFFFFFFFFFFFF9F
:10116000FFFFFFFFFFFFFFFF000FFFFFFFFFFFFF7E
:10117000FFFFFFFFFFFFFFFFFFFFFFFFFFFF000F6E
:10118000FFFFFFF000FFFF00000000000F000FFF57
:10119000FFFFFFFFFFFFFF000000FFFFFFFFFFFF5C
:1011A000FFFFFFFFFF77777FFF444C66767777EE90
:1011B000E666666C774FFFFFFFFFFF77777FFFFFE5
:1011C000FFFFFFFFFFFFFFFFFFFFFFFFFFFFFFFF2F
:1011D000FFFFFFFFFFFFFFFFFFFFFFFFFFFFFFFF1F
:1011E000FFFFFFFFFFFFFFFF000FFFFFFFFFFFFFFE
:1011F000FFFFFFFFFFFFFFFFFFFFFFFFFFFFFFFFFF
:10120000FFFFFFF000FFFFFF000000000F000FFFD7
:10121000FFFFFFFFFFFFFF000000FFFFFFFFFFFFDB
:10122000FFFFFFFFFFFFFF7777744CC776666EEE18
:101230006666666CC77FFFFFFFFFFFFFF7777FFFE4
:10124000FFFFFFFFFFFFFFFFFFFFFFFFFFFFFFFFAE
:10125000FFFFFFFFFFFFFFFFFFFFFFFFFFFFFFFF9E
:10126000FFFFFFFFFFFFFFFFFFFFFFFFFFFFFFFF8E
:10127000FFFFFFFFFFFFFFFFFFFFFFFFFFFFFFFF7E
:10128000FFFFFFFFFFFFFFFFFFFFFFFFFFFFFFFF6E
:10129000FFFFFFFFFFFFFF000000FFFFFFFFFFFF5B
:1012A000FFFFFFFFFFFFFFFFF77777776666666652
:1012B000666666CC447FFFFFFFFFFFFFFFFF777787
:1012C000FFFFFFFFFFFFFFFFFFFFFFFFFFFFFFFF2E
:1012D000FFFFFFFFFFFFFFFFFFFFFFFFFFFFFFFF1E
:1012E000FFFFFFFFFFFFFFFFFFFFFFFFFFFFFFFF0E
:1012F000FFFFFFFFFFFFFFFFFFFFFFFFFFFFFFFFFE
:10130000FFFFFFFFFFFFFFFFFFFFFFFFFFFFFFFFED
:10131000FFFFFFFFFFFFFF000000FFFFFFFFFFFFDA
:10132000FFFFFFFFFFFFFF777777447CC6666666A7
:1013300066666CC44877FFFFFFFFFFFFFFFFFF7784
:1013400077FFFFFFFFFFFFFFFFFFFFFFFFFFFFFF35
:10135000FFFFFFFFFFFFFFFFFFFFFFFFFFFFFFFF9D
:10136000FFFFFFFFFFFFFFFFFFFFFFFFFFFFFFFF8D
:10137000FFFFFFFFFFFFFFFFFFFFFFFFFFFFFFFF7D
:10138000FFFFFFFFFFFFFFFFFFFFFFFFFFFFFFFF6D
:10139000FFFFFFFFFFFFFF000000FFFFFFFFFFFF5A
:1013A000FFFFFFFFFFF7777777777774CC66666686
:1013B000666CCC444FF77FFFFFFFFFFFFFFFFFFF8F
:1013C000F777FFFFFFFFFFFFFFFFFFFFFFFFFFFFBD
:1013D000FFFFFFFFFFFFFFFFFFFFFFFFFFFFFFFF1D
:1013E000FFFFFFFFFFFFFFFFFFFFFFFFFFFFFFFF0D
:1013F000FFFFFFFFFFFFFFFFFFFFFFFFFFFFFFFFFD
:10140000FFFFFFFFFFFFFFFFFFFFFFFFFFFFFFFFEC
:10141000FFFFFFFFFFFFFF000000FFFFFFFFFFFFD9
:10142000FFFFFFF77777777777FF7744CCCCC666F7
:101430006CCC4444FFFF77FFFFFFFFFFFFFFFFFF80
:10144000FFF777FFFFFFFFFFFFFFFFFFFFFFFFFF3C
:10145000FFFFFFFFFFFFFFFFFFFFFFFFFFFFFFFF9C
:10146000FFFFFFFFFFFFFFFFFFFFFFFFFFFFFFFF8C
:10147000FFFFFFFFFFFFFFFFFFFFFFFFFFFFFFFF7C
:10148000FFFFFFFFFFFFFFFFFFFFFFFFFFFFFFFF6C
:10149000FFFFFFFFFFFFFF000000FFFFFFFFFFFF59
:1014A000FFF77777777777FFFFFF7F44444CCCCC0B
:1014B000CC44477FFFFFF77FFFFFFFFFFFFFFFFFEA
:1014C000FFFFF77FFFFFFFFFFFFFFFFFFFFFFFFFB4
:1014D000FFFFFFFFFFFFFFFFFFFFFFFFFFFFFFFF1C
:1014E000FFFFFFFFFFFFFFFFFFFFFFFFFFFFFFFF0C
:1014F000FFFFFFFFFFFFFFFFFFFFFFFFFFFFFFFFFC
:10150000FFFFFFFFFFFFFFFFFFFFFFFFFFFFFFFFEB
:10151000FFFFFFFFFFFFFF000000FFFFFFFFCCFF0B
:101520007777777777FFFFFFFFF77FFF44444444E7
:101530004444FF777777FF77FFFFFFFFFFFFFFFF51
:10154000FFFFFF77FFFFFFFFFFFFFFFFFFFFFFFF33
:10155000FFFFFFFFFFFFFFFFFFFFFFFFFFFFFFFF9B
:10156000FFFFFFFFFFFFFFFFFFFFFFFFFFFFFFFF8B
:10157000FFFFFFFFFFFFFFFFFFFFFFFFFFFFFFFF7B
:10158000FFFFFFFFFFFFFFFFFFFFFFFFFFFFFFFF6B
:10159000FFFFFFFFFFFFFF000000FFFFFFFC88C70A
:1015A000777777FFFFFFFFFFFFF7FFFFFFF444446C
:1015B00044FFFFFFFFF777777FFFFFFFFFFFFFFF8E
:1015C000FFFCCFF77FFFFFFFFFFFFFFFFFFFFFFFE6
:1015D000FFFFFFFFFFFFFFFFFFFFFFFFFFFFFFFF1B
:1015E000FFFFFFFFFFFFFFFFFFFFFFFFFFFFFFFF0B
:1015F000FFFFFFFFFFFFFFFFFFFFFFFFFFFFFFFFFB
:10160000FFFFFFFFFFFFFFFFFFFFFFFFFFFFFFFFEA
:10161000FFFFFFFFFFFFFF000000FFFFFFC8888CF8
:1016200077FFFFFFFFFFFFFFFF77FFFFFFFF4F7712
:10163000FFFFFFFFFFFFFFF777777777FFFFFFFFE2
:10164000FFC88CF77FFFFFFFFFFFFFFFFFFFFFFFDC
:10165000FFFFFFFFFFFFFFFFFFFFFFFFFFFFFFFF9A
:10166000FFFFFFFFFFFFFFFFFFFFFFFFFFFFFFFF8A
:10167000FFFFFFFFFFFFFFFFFFFFFFFFFFFFFFFF7A
:10168000FFFFFFFFFFFFFFFFFFFFFFFFFFFFFFFF6A
:10169000FFFFFFFFFFFFFF000000FFFF777EE88CEA
:1016A000FFFFFFFFFFFFFFFFF77FFFFFFFF77FF762
:1016B0007FFFFFFFFFFFFFFF77FFFF7777777777EA
:1016C0007C8888C7FFFFFFFFFFFFFFFFFFFFFFFFD3
:1016D000FFFFFFFFFFFFFFFFFFFFFFFFFFFFFFFF1A
:1016E000FFFFFFFFFFFFFFFFFFFFFFFFFFFFFFFF0A
:1016F000FFFFFFFFFFFFFFFFFFFFFFFFFFFFFFFFFA
:10170000FFFFFFFFFFFFFFFFFFFFFFFFFFFFFFFFE9
:10171000FFFFFFFFFFFFFF000000FFF777FCE8CFB0
:10172000FFFFFFFFFFFFFFFFF7FFFFFFFF77FFFF59
:1017300077FCCFFFFFFFFFFFF7FFFFFFFFFFFFFF7C
:101740007CEE88CFFFFFFFFFFFFFFFFFFFFFFFFFE4
:10175000FFFFFFFFFFFFFFFFFFFFFFFFFFFFFFFF99
:10176000FFFFFFFFFFFFFFFFFFFFFFFFFFFFFFFF89
:10177000FFFFFFFFFFFFFFFFFFFFFFFFFFFFFFFF79
:10178000FFFFFFFFFFFFFFFFFFFFFFFFFFFFFFFF69
:10179000FFFFFFFFFFFFFF000000FFFFFFFFCCFF89
:1017A000FFFFFFFFFFFFFFFF77FFFFFFF77FFFFF59
:1017B000F7C88CFFFFFFFFFFF77FFFFFFFFFFFFF73
:1017C000FFCE8CFFFFFFFFFFFFFFFFFFFFFFFFFFCD
:1017D000FFFFFFFFFFFFFFFFFFFFFFFFFFFFFFFF19
:1017E000FFFFFFFFFFFFFFFFFFFFFFFFFFFFFFFF09
:1017F000FFFFFFFFFFFFFFFFFFFFFFFFFFFFFFFFF9
:10180000FFFFFFFFFFFFFFFFFFFFFFFFFFFFFFFFE8
:10181000FFFFFFFFFFFFFF000000FFFFFFFFFFFFD5
:10182000FFFFFFFFFFFFFFFF7FFFFFFFF7FFFFFF50
:10183000FC8888CFFFFFFFFFFF77FFFFFFFFFFFF61
:10184000FFFCCFFFFFFFFFFFFFFFFFFFFFFFFFFFDB
:10185000FFFFFFFFFFFFFFFFFFFFFFFFFFFFFFFF98
:10186000FFFFFFFFFFFFFFFFFFFFFFFFFFFFFFFF88
:10187000FFFFFFFFFFFFFFFFFFFFFFFFFFFFFFFF78
:10188000FFFFFFFFFFFFFFFFFFFFFFFFFFFFFFFF68
:10189000FFFFFFFFFFFFFF000000FFFFFFFFFFFF55
:1018A000FFFFFFFFFFFFFFF77FFFFFFF77FFFFFF58
:1018B000FCEE88CFFFFFFFFFFFF77FFFFFFFFFFF7B
:1018C000FFFFFFFFFFFFFFFFFFFFFFFFFFFFFFFF28
:1018D000FFFFFFFFFFFFFFFFFFFFFFFFFFFFFFFF18
:1018E000FFFFFFFFFFFFFFFFFFFFFFFFFFFFFFFF08
:1018F000FFFFFFFFFFFFFFFFFFFFFFFFFFFFFFFFF8
:10190000FFFFFFFFFFFFFFFFFFFFFFFFFFFFFFFFE7
:10191000FFFFFFFFFFFFFF000000FFFFFFFFFFFFD4
:10192000FFFFFFFFFFFFFFF7FFFFFFF77FFFFFFF57
:10193000FFCE8CFFFFFFFFFFFFF77FFFFFFFFFFFE3
:10194000FFFFFFFFFFFFFFFFFFFFFFFFFFFFFFFFA7
:10195000FFFFFFFFFFFFFFFFFFFFFFFFFFFFFFFF97
:10196000FFFFFFFFFFFFFFFFFFFFFFFFFFFFFFFF87
:10197000FFFFFFFFFFFFFFFFFFFFFFFFFFFFFFFF77
:10198000FFFFFFFFFFFFFFFFFFFFFFFFFFFFFFFF67
:10199000FFFFFFFFFFFFFF000000FFFFFFFFFFFF54
:1019A000FFFFFFFFFFFFFF77FFFFFF77FFFFFFFF57
:1019B000FFFCC77FFFFFFFFFFFFF77FFFFFFFFFF7A
:1019C000FFFFFFFFFFFFFFFFFFFFFFFFFFFFFFFF27
:1019D000FFFFFFFFFFFFFFFFFFFFFFFFFFFFFFFF17
:1019E000FFFFFFFFFFFFFFFFFFFFFFFFFFFFFFFF07
:1019F000FFFFFFFFFFFFFFFFFFFFFFFFFFFFFFFFF7
:101A0000FFFFFFFFFFFFFFFFFFFFFFFFFFFFFFFFE6
:101A1000FFFFFFFFFFFFFF000000FFFFFFFFFFFFD3
:101A2000FFFFFFFFFFFFFF7FFFFFF77FFFFFFFFFCE
:101A3000FFFFFF77FFFFFFFFFFFFF7FFFFFFFFFF46
:101A4000FFFFFFFFFFFFFFFFFFFFFFFFFFFFFFFFA6
:101A5000FFFFFFFFFFFFFFFFFFFFFFFFFFFFFFFF96
:101A6000FFFFFFFFFFFFFFFFFFFFFFFFFFFFFFFF86
:101A7000FFFFFFFFFFFFFFFFFFFFFFFFFFFFFFFF76
:101A8000FFFFFFFFFFFFFFFFFFFFFFFFFFFFFFFF66
:101A9000FFFFFFFFFFFFFF000000FFFFFFFFFFFF53
:101AA000FFFFFFFFFFFFF77FFFFFF7FFFFFFFFFFD6
:101AB000FFFFFFF77FFFFFFFFFFFF77FFFFFFFFF46
:101AC000FFFFFFFFFFFFFFFFFFFFFFFFFFFFFFFF26
:101AD000FFFFFFFFFFFFFFFFFFFFFFFFFFFFFFFF16
:101AE000FFFFFFFFFFFFFFFFFFFFFFFFFFFFFFFF06
:101AF000FFFFFFFFFFFFFFFFFFFFFFFFFFFFFFFFF6
:101B0000FFFFFFFFFFFFFFFFFFFFFFFFFFFFFFFFE5
:101B1000FFFFFFFFFFFFFF000000FFFFFFFFFFFFD2
:101B2000FFFFFFFFFFFFF7FFFFFF77FFFFFFFFFF55
:101B3000FFFFFFFF777FFFFFFFFFFF7FFFFFFFFF3D
:101B4000FFFFFFFFFFFFFFFFFFFFFFFFFFFFFFFFA5
:101B5000FFFFFFFFFFFFFFFFFFFFFFFFFFFFFFFF95
:101B6000FFFFFFFFFFFFFFFFFFFFFFFFFFFFFFFF85
:101B7000FFFFFFFFFFFFFFFFFFFFFFFFFFFFFFFF75
:101B8000FFFFFFFFFFFFFFFFFFFFFFFFFFFFFFFF65
:101B9000FFFFFFFFFFFFFF000000FFFFFFFFFFFF52
:101BA000FFFFFFFFFFFF77FFFFF77FFFFFFFFFFF55
:101BB000FFFFFFFFFF77FFFFFFFFFF77FFFFFFFF45
:101BC000FFFFFFFFFFFFFFFFFFFFFFFFFFFFFFFF25
:101BD000FFFFFFFFFFFFFFFFFFFFFFFFFFFFFFFF15
:101BE000FFFFFFFFFFFFFFFFFFFFFFFFFFFFFFFF05
:101BF000FFFFFFFFFFFFFFFFFFFFFFFFFFFFFFFFF5
:101C0000FFFFFFFFFFFFFFFFFFFFFFFFFFFFFFFFE4
:101C1000FFFFFFFFFFFFFF000000FFFFFFFFFFFFD1
:101C2000FFFFFFFFFFFF7FFFFF77FFFFFFFFFFFFCC
:101C3000FFFFFFFFFFF77FFFFFFFFFF7FFFFFFFF44
:101C4000FFFFFFFFFFFFFFFFFFFFFFFFFFFFFFFFA4
:101C5000FFFFFFFFFFFFFFFFFFFFFFFFFFFFFFFF94
:101C6000FFFFFFFFFFFFFFFFFFFFFFFFFFFFFFFF84
:101C7000FFFFFFFFFFFFFFFFFFFFFFFFFFFFFFFF74
:101C8000FFFFFFFFFFFFFFFFFFFFFFFFFFFFFFFF64
:101C9000FFFFFFFFFFFFFF000000FFFFFFFFFFFF51
:101CA000FFFFFFFFFFFF7FFFF77FFFFFFFFFFFFF4C
:101CB000FFFFFFFFFFFF777FFFFFFFF77FFFFFFFC4
:101CC000FFFFFFFFFFFFFFFFFFFFFFFFFFFFFFFF24
:101CD000FFFFFFFFFFFFFFFFFFFFFFFFFFFFFFFF14
:101CE000FFFFFFFFFFFFFFFFFFFFFFFFFFFFFFFF04
:101CF000FFFFFFFFFFFFFFFFFFFFFFFFFFFFFFFFF4
:101D0000FFFFFFFFFFFFFFFFFFFFFFFFFFFFFFFFE3
:101D1000FFFFFFFFFFFFFF000000FFFFFFFFFFFFD0
:101D2000FFFFFFFFFFF77FFF77FFFFFFFFFFFFFFD3
:101D3000FFFFFFFFFFFFFF77FFFFFFFF7FFFFFFFBB
:101D4000FFFFFFFFFFFFFFFFFFFFFFFFFFFFFFFFA3
:101D5000FFFFFFFFFFFFFFFFFFFFFFFFFFFFFFFF93
:101D6000FFFFFFFFFFFFFFFFFFFFFFFFFFFFFFFF83
:101D7000FFFFFFFFFFFFFFFFFFFFFFFFFFFFFFFF73
:101D8000FFFFFFFFFFFFFFFFFFFFFFFFFFFFFFFF63
:101D9000FFFFFFFFFFFFFF000000FFFFFFFFFFFF50
:101DA000FFFFFFFFFFF7FFF77FFFFFFFFFFFFFFFD3
:101DB000FFFFFFFFFFFFFFF777FFFFFF7FFFFFFF43
:101DC000FFFFFFFFFFFFFFFFFFFFFFFFFFFFFFFF23
:101DD000FFFFFFFFFFFFFFFFFFFFFFFFFFFFFFFF13
:101DE000FFFFFFFFFFFFFFFFFFFFFFFFFFFFFFFF03
:101DF000FFFFFFFFFFFFFFFFFFFFFFFFFFFFFFFFF3
:101E0000FFFFFFFFFFFFFFFFFFFFFFFFFFFFFFFFE2
:101E1000FFFFFFFFFFFFFF000000FFFFFFFFFFFFCF
:101E2000FFFFFFFFFFF7FF77FFFFFFFFFFFFFFFF52
:101E3000FFFFFFFFFFFFFFFFF77FFFFF7FFFFFFFBA
:101E4000FFFFFFFFFFFFFFFFFFFFFFFFFFFFFFFFA2
:101E5000FFFFFFFFFFFFFFFFFFFFFFFFFFFFFFFF92
:101E6000FFFFFFFFFFFFFFFFFFFFFFFFFFFFFFFF82
:101E7000FFFFFFFFFFFFFFFFFFFFFFFFFFFFFFFF72
:101E8000FFFFFFFFFFFFFFFFFFFFFFFFFFFFFFFF62
:101E9000FFFFFFFFFFFFFF000000FFFFFFFFFFFF4F
:101EA000FFFFFFFFFFF7777FFFFFFFFFFFFFFFFF52
:101EB000FFFFFFFFFFFFFFFFFF777FF77FFFFFFFC2
:101EC000FFFFFFFFFFFFFFFFFFFFFFFFFFFFFFFF22
:101ED000FFFFFFFFFFFFFFFFFFFFFFFFFFFFFFFF12
:101EE000FFFFFFFFFFFFFFFFFFFFFFFFFFFFFFFF02
:101EF000FFFFFFFFFFFFFFFFFFFFFFFFFFFFFFFFF2
:101F0000FFFFFFFFFFFFFFFFFFFFFFFFFFFFFFFFE1
:101F1000FFFFFFFFFFFFFF000000FFFFFFFFFFFFCE
:101F2000FFFFFFFFFFFFFFFFFFFFFFFFFFFFFFFFC1
:101F3000FFFFFFFFFFFFFFFFFFFF7777FFFFFFFFC1
:101F4000FFFFFFFFFFFFFFFFFFFFFFFFFFFFFFFFA1
:101F5000FFFFFFFFFFFFFFFFFFFFFFFFFFFFFFFF91
:101F6000FFFFFFFFFFFFFFFFFFFFFFFFFFFFFFFF81
:101F7000FFFFFFFFFFFFFFFFFFFFFFFFFFFFFFFF71
:101F8000FFFFFFFFFFFFFFFFFFFFFFFFFFFFFFFF61
:101F9000FFFFFFFFFFFFFF000000000010B5044639
:101FA000074B1868074BA3FB0030800900F034FB97
:101FB000002221464FF0FF3000F0E2FA002010BD71
:101FC00000000020D34D621008B50B4B1A6842F494
:101FD00000721A601A6842F480621A601A6842F449
:101FE00080721A60032000F0B9FA0020FFF7D6FFD4
:101FF0000DF098FA002008BD003C0240024A136828
:1020000001331360704700BF40FB0020014B18688C
:10201000704700BF40FB002010B582B00190FFF771
:10202000F5FF0446FFF7F2FF001B019B9842F9D32E
:1020300002B010BD024A136823F002031360704718
:1020400010E000E04C4B5A6822F440325A605A6863
:1020500041680A435A600268536823F480735360EE
:1020600002685368016943EA0123536002685368B8
:1020700023F0407353600268536881680B435360D8
:102080000268936823F40063936002689368C168F0
:102090000B439360826A394B9A425BD00268936823
:1020A00023F07063936002689368816A0B439360C6
:1020B0000268936823F04053936002689368C16A92
:1020C0000B4393600268936823F0020393600268F5
:1020D0009368816943EA41039360036A002B44D00B
:1020E0000268536843F4006353600268536823F442
:1020F00060435360436A013B4FF4604292FAA2F29C
:10210000B2FA82F2934001684A6813434B60026856
:10211000D36A23F47003D3620168CB6AC269013ABF
:1021200043EA0253CB620268936823F4007393601E
:1021300002689368016B43EA4123936002689368E5
:1021400023F48063936002689368416943EA8123C2
:10215000936070470268936823F07063936002682D
:10216000936823F040539360ACE70268536823F40C
:1021700000635360CBE700BF002301400100000F64
:1021800030B310B50446036C43B1236C13F0100F49
:102190000AD00120002384F83C3010BD436480F84D
:1021A0003C300DF0EFF9F0E7236C23F4885323F073
:1021B000020343F0020323642046FFF743FF00209D
:1021C0006064236C23F0030343F001032364E1E71D
:1021D0000120704782B00023019390F83C30012B1E
:1021E00063D0012380F83C3003689A6812F0010F35
:1021F00013D19A6842F001029A60304B1B68304A52
:10220000A2FB03239B0C03EB4303019302E0019B1E
:10221000013B0193019B002BF9D10268936813F0F5
:10222000010F44D0036C23F4E06323F0010343F473
:1022300080730364536813F4806F05D0036C23F438
:10224000405343F480530364036C13F4805F19D04C
:10225000436C23F006034364002380F83C306FF0A6
:1022600022031360174B5B6813F01F0F0DD1036837
:102270009A6812F0405F1DD19A6842F080429A60DD
:10228000002015E000234364E6E703680E4A93420A
:1022900001D000200CE09A6812F0405F0CD19A68DF
:1022A00042F080429A60002002E0022000E000201C
:1022B00002B070470020FBE70020F9E70000002093
:1022C00083DE1B43002301400020014090F83C3096
:1022D000012B19D0012380F83C300268936823F069
:1022E0000103936003689B6813F0010F07D1036C2F
:1022F00023F4885323F0010343F001030364002314
:1023000080F83C30184670470220704770B504468C
:102310000D4603689A6812F4806F03D09B6813F42B
:10232000807F19D1FFF772FE064623681A6812F003
:10233000020F1AD1B5F1FF3FF7D025B1FFF766FEC6
:10234000801BA842F1D9236C43F0040323640023CB
:1023500084F83C3003202DE0036C43F02003036439
:10236000002380F83C30012024E06FF012021A6054
:10237000236C43F40073236423689A6812F0405F6F
:1023800017D1A269BAB9DA6A12F4700F03D09B6848
:1023900013F4806F11D1236C23F480732364236CB6
:1023A00013F4805F0BD1236C43F0010323640020FE
:1023B00000E0002070BD0020FCE70020FAE70020CC
:1023C000F8E70368D86C704730B482B000230193FB
:1023D00090F83C30012B00F0B580012380F83C30B0
:1023E0000B68092B3ED90568EA689BB203EB4303EF
:1023F0001E3B072404FA03F322EA0303EB6005689B
:10240000EA688C680B8803EB43031E3B04FA03F372
:102410001343EB604B68062B3AD805686A6B03EBF5
:102420008303053B1F2404FA03F322EA03036B63CF
:1024300005686A6B4B6803EB8303053B0C8804FA61
:1024400003F313436B6302683F4B9A4250D0026818
:102450003D4B9A4255D0002380F83C30184602B0DC
:1024600030BC704705682A699BB203EB430307241D
:1024700004FA03F322EA03032B6105682A698C68D6
:102480000B8803EB430304FA03F313432B61C1E707
:102490000C2B16D805682A6B03EB8303233B1F2400
:1024A00004FA03F322EA03032B6305682A6B4B68E3
:1024B00003EB8303233B0C8804FA03F313432B63DE
:1024C000C1E70568EA6A03EB8303413B1F2404FA72
:1024D00003F322EA0303EB620568EA6A4B6803EB45
:1024E0008303413B0C8804FA03F31343EB62AAE72E
:1024F0000B68122BABD1154A536843F48003536029
:10250000A5E70B68124A934201D0112BA3D10F4AC1
:10251000536843F4000353600A680D4B9A429AD102
:102520000C4B1B680C4AA2FB03239B0C03EB83039D
:102530005B00019302E0019B013B0193019B002B97
:10254000F9D188E702208AE70020014000230140FA
:10255000120000100000002083DE1B43074AD368EE
:1025600023F4E0631B041B0C000200F4E06003434F
:1025700043F0BF6343F40033D360704700ED00E0E5
:1025800030B4174BDB68C3F30223C3F10704042CF8
:1025900028BF04241D1D062D18D9033B4FF0FF351D
:1025A00005FA04F421EA0401994005FA03F322EA4A
:1025B0000303194300280BDB0901C9B200F1604095
:1025C00000F5614080F8001330BC70470023E5E758
:1025D00000F00F000901C9B2024B1954F4E700BF23
:1025E00000ED00E014ED00E000F01F0240090123BF
:1025F0009340024A42F82030704700BF00E100E0FB
:1026000000F01F024009012393402030014A42F8A4
:102610002030704700E100E00138B0F1807F0AD23D
:10262000064B5860064AF02182F82310002098607B
:1026300007221A6070470120704700BF10E000E0D9
:1026400000ED00E000F01F024009012393406030DC
:10265000014A42F82030704700E100E0042805D02C
:10266000054A136823F0040313607047024A136895
:1026700043F004031360704710E000E000230F2BC9
:1026800000F2E580F0B482B039E0092200E00022D7
:10269000B2403A4302346E4E46F824206D4A146824
:1026A000EA4324EA05064F6817F4803F01D045EA63
:1026B0000406684C2660646802EA04064F6817F452
:1026C000003F01D045EA0406624C6660A46802EA55
:1026D00004064F6817F4801F01D045EA04065D4CDC
:1026E000A660E46822404E6816F4001F01D045EA57
:1026F0000402584CE26001330F2B00F2A580012246
:102700009A400C6804EA020532EA0404F3D14C68EA
:10271000022C01D0122C10D1DE08083650F826C049
:1027200003F00704A7000F24BC402CEA040C0C693A
:10273000BC4044EA0C0440F82640D0F800C05E00DB
:102740000324B440E7432CEA040C4C6804F003046F
:10275000B44044EA0C0404604C6804F1FF3CBCF152
:10276000010F03D9112C01D0122C10D1846807EA73
:10277000040CCC68B44044EA0C048460446824EA45
:1027800002024C68C4F300149C4014434460C268C5
:1027900017408A68B2403A43C2604A6812F0805FCC
:1027A000A9D0002201922C4A546C44F48044546411
:1027B000526C02F480420192019A9C08A61C244AA1
:1027C00052F8267003F0030296000F22B24027EA67
:1027D0000207224A90423FF45AAF02F580629042CB
:1027E00022D002F58062904220D002F580629042B1
:1027F0001ED002F5806290421CD002F580629042A9
:102800001AD002F58062904218D002F580629042A0
:1028100016D002F58062904214D002F58062904298
:102820003FF433AF0A2233E7012231E702222FE7D8
:1028300003222DE704222BE7052229E7062227E7BA
:10284000072225E7082223E702B0F0BC7047704753
:1028500000380140003C01400038024000000240C6
:1028600000230F2B00F29580F0B50AE0092500E067
:10287000002505FA02F2A24270D001330F2B00F2BC
:10288000878001229A4002EA010C32EA0104F4D165
:1028900004685D00032606FA05F524EA05040460D1
:1028A00023FA06F7083750F827E003F00704A400DE
:1028B0000F2606FA04F42EEA040440F82740846840
:1028C00024EA05048460446824EA02024260C26883
:1028D00022EA0505C5609F08BC1C2E4A52F8244018
:1028E00003F003029200964034402B4DA842BFD023
:1028F00005F58065A84221D005F58065A8421FD066
:1029000005F58065A8421DD005F58065A8421BD05D
:1029100005F58065A84219D005F58065A84217D055
:1029200005F58065A84215D005F58065A84213D04D
:1029300005F58065A84299D00A259AE7012598E710
:10294000022596E7032594E7042592E7052590E7FD
:1029500006258EE707258CE708258AE70D4DBA1C6A
:1029600055F8224024EA060645F822600B4A14680E
:1029700024EA0C041460546824EA0C04546094683B
:1029800024EA0C049460D46824EA0C04D46074E74C
:10299000F0BD70470038014000000240003C01409B
:1029A00000690840C0B270470AB1816170470904EC
:1029B000816170477047000008B5054B5B690342B1
:1029C00000D108BD024B5861FFF7F4FFF9E700BFE3
:1029D000003C0140F8B50446C0EBC002244B03EBB9
:1029E0008203DE6A1A6BB61A1B6A9E4200D91E4623
:1029F000F71CBF0811E0F71CBF08C4EBC4051C4B53
:102A000003EB8505B2B2E1B2686A02F035FB6B6A8E
:102A100033446B622B6B33442B63630103F18043BC
:102A200003F58023D3F818399BB2BB4214D9C4EB09
:102A3000C4030F4A02EB83031A6BDB6A9A420BD280
:102A400053B19E1AC4EBC403094A02EB83031B6A09
:102A50009E42D0D91E46CEE746B90120A040054B84
:102A6000D3F8344824EA0004C3F834480020F8BD01
:102A7000800501200000044008B5254B032283F89F
:102A800069210DF0E1F802F099F801F0E3FF002070
:102A900002F09EF80022052A0FD8C2EBC20399006B
:102AA0001B4B0B44012159761A76DA830021D97623
:102AB00019625962D9620132EDE70022052A1CD859
:102AC000C2EBC2039900124B0B44002183F8C110E2
:102AD00083F8C020DA8383F8C310C3F8C810C3F8A2
:102AE000CC10C3F8D41002F140039B0003F18043E3
:102AF00003F5802359600132E0E702F0BBF8044B94
:102B0000012283F8692102F0EFFC002008BD00BF1C
:102B10008005012008B502F0D7FC02F045F800203E
:102B200008BD08B502F04AF802F090FC02F0DCFCA7
:102B3000002008BD10B5064C032384F86931FFF767
:102B4000F0FF0DF0ABF8002084F8690110BD00BF64
:102B5000800501202DE9F047AA4B1E68002E40F0A9
:102B60002481A94B5A699B691A4200F01E81A74B28
:102B70001B6813B1A54B01221A60A54B1C68002CE1
:102B800064D0A14BB3F81A28B3F81E58ADB2154063
:102B9000344625E0C4EBC4039A009E4B1344D3F89B
:102BA000C810620102F1804202F58022D2F8082B9F
:102BB000C2F312028A1AC3F8D820D3F8CC200A44F0
:102BC000C3F8CC201EE017F0080F3BD1630103F1DE
:102BD000804303F580231922C3F8082B01346D08C4
:102BE000A5B315F0010FF9D0630103F1804303F59C
:102BF0008023D3F8087B17F0010FE4D0854BDB6806
:102C0000012BC7D0DFF80C82C4EBC402930043440D
:102C1000D3F8CC10E0B203F09BFAD8F80C30012BBB
:102C2000D1D1002CCFD1C4EBC4039A004346134446
:102C3000D3F8D430002BC6D108F5B671012002F0CC
:102C400085FCC0E7744803F053FABFE7734B1B6879
:102C5000002B5BD06C4BB3F81828B3F81C58ADB2FE
:102C60001540344616E0C4EBC4039A00694B134484
:102C7000196A5A6A0A445A6228E0630103F18043E0
:102C800003F580235B22C3F8082916F0800F39D1A1
:102C900001346D08002D39D015F0010FF8D0630113
:102CA00003F1804303F58023D3F8086916F0010F80
:102CB000E3D05549D1F834380122A24023EA020377
:102CC000C1F83438534BDB68012BCCD0514FC4EBE7
:102CD000C40293003B44596AE0B203F06BFAFB680C
:102CE000012BCAD1002CC8D1C4EBC4039A003B46C7
:102CF0001344DB6A002BC0D107F5B671012002F046
:102D000025FCBAE72046FFF765FEC1E7444B1B6888
:102D1000002B4CD1434B1B6843B13B4BD3F80838D5
:102D200013F0010F50D13F4B01221A603E4B1B683C
:102D3000002B4CD13D4B1B68002B40F0B8803C4B26
:102D40001B688BB13B4B00221A602F4B1D6A05F0AC
:102D50000F06C5F34343022B00F0B680062B00F0AC
:102D6000D380344B01221A60334B1B68002B40F098
:102D7000DE80324B1B68002B40F0DF80304B1B683D
:102D8000002B40F0E1802F4B1B68002B40F0E380CC
:102D90002D4B1B684BB11C4B5C6814F0040F40F0CA
:102DA000E080194A536823435360BDE8F087164A10
:102DB000D2F8043823F00103C2F8043803F070FAA3
:102DC000174B01221A60A5E70CF07CFFABE70E4A17
:102DD000D2F8043823F00103C2F80438002001F0CF
:102DE00011FF00220B4B1B6893422FD9530103F1B3
:102DF000804303F58023FF21C3F80819C3F8081B9B
:102E00000132EFE7800280420000044084028042E9
:102E1000CC02804280050120EC060120C8028042DD
:102E2000FC028042AC028042B0028042B402804286
:102E300090028042100300428C028042D002804205
:102E4000D4020042F802804288028042464B4FF68C
:102E5000FF72A3F81828A3F81A28B3F81C2892B216
:102E600042F00102A3F81C28B3F81E2892B242F0E7
:102E70000102A3F81E28D3F8142842F00B02C3F86D
:102E80001428D3F8102842F00B02C3F81028D3F806
:102E9000002822F4FE62C3F80028344B03F5B67113
:102EA000187B02F053FB324B01221A6042E702F01A
:102EB0002BFB2D4AD36823F47053D36003F0C8F979
:102EC0002C4B01221A603AE747F6F0731D423FF49B
:102ED00048AF4FEA1518DFF89490C6EBC6039F0081
:102EE0004F44C5F30A11D7F8CC0002F03BFAC8F3FF
:102EF0000A03D7F8CC201A44C7F8CC20D7F8D8203A
:102F00001344C7F8D8302CE71B4F0821384602F08D
:102F100029FAC5F30A15A7F5B677C6EBC6029300E2
:102F20003B44D3F8D8201544C3F8D85019E703F030
:102F3000C3F9124B01221A601BE7E0B203F0BEF99D
:102F40000F4B01221A6019E7E0B203F0B9F90D4BFB
:102F500001221A6017E703F0B5F90B4B01221A6042
:102F600016E703F0B1F91CE70000044080050120DA
:102F7000B0028042B4028042EC0601208C02804202
:102F8000D0028042D4020042F802804208B502F02A
:102F900087FA002008BD000038B5044645B2002D70
:102FA00016DB00F07F03C3EBC3039B00C0330E4866
:102FB000184404F07F040470ED0F45708260C17006
:102FC00005B1C48002290CD001F004FF002038BDF7
:102FD00000F07F03C3EBC3039B001833024818447F
:102FE000E7E700230371EFE78005012008B50246FB
:102FF00041B2002910DB00F07F03C3EBC3039B0049
:10300000C0330A48184402F07F020270C90F4170B1
:1030100001F032FF002008BD00F07F03C3EBC303C3
:103020009B00183301481844EDE700BF80050120DC
:1030300038B500F07F03C3EBC3008000C030124DF1
:103040002844C3EBC30405EB8404C4F8CC10C4F8D3
:10305000D4200022C4F8D82084F8C12084F8C030DD
:10306000EA68012A05D05BB9D1B201F047FF002020
:1030700038BDC3EBC30405EB8404C4F8D010F2E7F9
:10308000D1B202F035F8F2E78005012000F07F00B0
:10309000C0EBC000024B03EB8000B0F8D8007047D3
:1030A0008005012038B500F07F03C3EBC30080002A
:1030B0001830104D2844C3EBC30405EB840461624F
:1030C000E26200222263012262762376EA68012A04
:1030D00005D053B9D1B201F011FF002038BDC3EBC8
:1030E000C30405EB8404A162F3E7D1B202F000F857
:1030F000F3E700BF8005012010B5024641B2002968
:1031000011DBC0EBC0039B00C0330F481844012300
:10311000837002F07F040470C90F417002F030F92F
:1031200054B1002010BD00F07F03C3EBC3039B002C
:10313000183305481844EAE7034B03F5B671187BCA
:1031400002F004FAEDE700BF8005012010B5024649
:1031500041B2002910DBC0EBC0039B00C0330B4819
:1031600018440024847002F07F020270C90F41707D
:1031700002F03AF9204610BD00F07F03C3EBC30311
:103180009B00183301481844EBE700BF800501207D
:1031900008B510F0800F03D101F04CFD002008BDF0
:1031A00000F07F0001F02EFDF8E70000154B5B6A90
:1031B00028B943EA0141134B99620020704730B4AB
:1031C0000546104A906A03EB104000226B1E9342A2
:1031D0000BD902F140039B0003F1804303F58023E8
:1031E0005C6800EB14400132F0E740EA014005F171
:1031F0003F039B0003F1804303F5802358600020C8
:1032000030BC704700000440014B586200207047FA
:10321000000004404FF4807393FAA3F3B3FA83F3EE
:1032200003F1845303F560339B0001221A60704759
:103230004FF4807393FAA3F3B3FA83F303F1845347
:1032400003F560339B0000221A6070470B4A136835
:1032500023F0030303431360094A136943F0040393
:103260001361012908D040BF20BF20BF044A136961
:1032700023F004031361704730BFF7E7007000408C
:1032800000ED00E030B583B00446036813F0010F91
:103290002ED0A34B9B6803F00C03042B1FD0A04B34
:1032A0009B6803F00C03082B14D022799D4B1A70F5
:1032B0006368002B40D0FEF7A9FE0546984B1B68BB
:1032C00013F4003F14D1FEF7A1FE401B6428F5D98A
:1032D000032072E1924B5B6813F4800FE5D0904BB2
:1032E0001B6813F4003F03D06368002B00F060817B
:1032F000236813F0020F4AD0894B9B6813F00C0F20
:103300002ED0874B9B6803F00C03082B23D0E36877
:10331000002B63D0844B01221A60FEF777FE05462E
:103320007F4B1B6813F0020F49D1FEF76FFE401B65
:103330000228F5D9032040E1FEF768FE0546784BE8
:103340001B6813F4003FD3D0FEF760FE401B6428D7
:10335000F5D9032031E1724B5B6813F4800FD6D1AD
:103360006F4B1B6813F0020F03D0E368012B40F092
:1033700021816B48036823F0F8032169F82292FA4F
:10338000A2F2B2FA82F201FA02F213430360236856
:1033900013F0080F46D0636993B3644B01221A609F
:1033A000FEF734FE05465E4B5B6F13F0020F39D11A
:1033B000FEF72CFE401B0228F5D90320FDE05848FB
:1033C000036823F0F8032169F82292FAA2F2B2FA14
:1033D00082F201FA02F213430360D8E7524B002253
:1033E0001A60FEF713FE05464D4B1B6813F0020FE3
:1033F000CDD0FEF70BFE401B0228F5D90320DCE000
:103400004A4B00221A60FEF701FE0546444B5B6FF3
:1034100013F0020F06D0FEF7F9FD401B0228F5D984
:103420000320CAE0236813F0040F1FD1A369002B07
:1034300000F0C2803A4A926802F00C02082A00F0BA
:10344000BE80022B59D03A4B00221A60FEF7DEFDF7
:103450000446334B1B6813F0007F00F0A780FEF793
:10346000D5FD001B0228F4D90320A6E00023019318
:103470002B4B1A6C42F080521A641B6C03F0805381
:103480000193019B2B4A136843F480731360FEF78A
:10349000BDFD0546274B1B6813F4807F06D1FEF760
:1034A000B5FD401B0228F5D9032086E0227A224B85
:1034B0001A70A36883B1FEF7A9FD0546184B1B6F70
:1034C00013F0020FB2D1FEF7A1FD401B41F2883389
:1034D0009842F3D9032070E0FEF798FD0546104BA3
:1034E0001B6F13F0020FA1D0FEF790FD401B41F2BD
:1034F00088339842F3D903205FE00D4B00221A6015
:10350000FEF784FD0546064B1B6813F0007F15D0BF
:10351000FEF77CFD401B0228F5D903204DE000BFDB
:10352000003802400238024000004742800E474205
:10353000600047420070004070380240E369226A30
:103540001343616A47F6C07292FAA2F2B2FA82F2AB
:1035500001FA02F21343A26A5208013A4FF44031D1
:1035600091FAA1F1B1FA81F18A401343E16A4FF077
:10357000706292FAA2F2B2FA82F201FA02F21343F4
:10358000104A5360104B01221A60FEF73FFD0446BB
:103590000C4B1B6813F0007F06D1FEF737FD001BB4
:1035A0000228F5D9032008E0002006E0002004E00E
:1035B000012002E0012000E0002003B030BD012026
:1035C000FBE700BF0038024060004742214B9B6888
:1035D00003F00C03042B38D0082B38D11D4B58684E
:1035E00000F03F005B6813F4800F1ED01A4AB2FB54
:1035F000F0F2184B586847F6C073184093FAA3F3DB
:10360000B3FA83F3D84000FB02F0124B5B6803F47B
:1036100040334FF4403292FAA2F2B2FA82F2D3402F
:1036200001335B00B0FBF3F070470C4AB2FBF0F2E1
:10363000084B586847F6C073184093FAA3F3B3FADF
:1036400083F3D84000FB02F0DFE7034870470348EC
:10365000704700BF0038024000127A000024F400D6
:1036600070B504460D46624B1B6803F00F038B4296
:1036700008D2CBB25E4A1370136803F00F038B427B
:1036800040F0AF80236813F0020F06D0594A9368C8
:1036900023F0F003A1680B439360236813F0010F3C
:1036A00064D06368012B26D09A1E012A2AD9514A78
:1036B000126812F0020F00F096804E498A6822F0DC
:1036C000030213438B60FEF7A1FC06466368012BDF
:1036D0001FD0022B2CD0032B39D0464B9B6813F004
:1036E0000C0F43D0FEF792FC801B41F288339842C6
:1036F000F3D9032074E03F4A126812F4003FDCD192
:1037000001206DE03B4A126812F0007FD5D1012004
:1037100066E0384B9B6803F00C03042B26D0FEF7C1
:1037200075FC831B41F288329342F2D9032057E0A3
:10373000304B9B6803F00C03082B17D0FEF766FC98
:10374000801B41F288339842F2D9032048E0294B8C
:103750009B6803F00C030C2B08D0FEF757FC801B72
:1037600041F288339842F2D9032039E0204B1B689C
:1037700003F00F03AB4207D9EAB21D4B1A701B6866
:1037800003F00F03AB4230D1236813F0040F06D0CF
:10379000184A936823F4E053E1680B43936023686D
:1037A00013F0080F07D0134A936823F4604321698C
:1037B00043EAC1039360FFF709FF0E4B9B6803F0D8
:1037C000F003F02292FAA2F2B2FA82F2D3400A4A4D
:1037D000D35CD840094B18600020FEF7DFFB0020C7
:1037E00070BD0120FCE70120FAE70120F8E700BFE7
:1037F000003C024000380240A0A602080000002061
:10380000014B1868704700BF0000002008B5FFF7A3
:10381000F7FF074B9B6803F4E0534FF4E05292FA32
:10382000A2F2B2FA82F2D340024AD35CD84008BD79
:1038300000380240A0A6020808B5FFF7E1FF074BD9
:103840009B6803F460434FF4604292FAA2F2B2FA2A
:1038500082F2D340024AD35CD84008BD003802400F
:10386000A0A6020870B582B00446036813F0030FE7
:1038700014D1236813F00C0F70D1236813F0200FBC
:1038800040F0F780236813F0100F00F0598194F88E
:103890002C20AC4B1A60002002B070BDAA4B002255
:1038A0001A60FEF7B3FB0546A84B1B6813F0006FC8
:1038B00006D0FEF7ABFB431B022BF5D90320EBE749
:1038C000236813F0010F14D0636847F6C07292FAB0
:1038D000A2F2B2FA82F29340A1684FF0E04292FA6B
:1038E000A2F2B2FA82F201FA02F21343974AC2F844
:1038F0008430236813F0020F1ED09449D1F884302D
:1039000003F0E0434FF0E04292FAA2F2B2FA82F200
:1039100023FA02F26068E3681B0643EA801343EA75
:103920000273C1F88430D1F88C3023F01F03E269B0
:10393000013A1343C1F88C30834B01221A60FEF721
:1039400065FB0546814B1B6813F0006F91D1FEF7B4
:103950005DFB401B0228F5D903209DE77C4B00222C
:103960001A60FEF753FB0546784B1B6813F0005FA7
:1039700006D0FEF74BFB431B022BF5D903208BE748
:10398000236813F0040F2FD0704DD5F8882002F073
:10399000E0424FF0E04191FAA1F3B3FA83F3DA4049
:1039A000236947F6C07090FAA0F0B0FA80F0834027
:1039B00066694FF0706090FAA0F0B0FA80F006FAF5
:1039C00000F0034391FAA1F1B1FA81F18A40134367
:1039D000C5F88830D5F88C3023F4F853226A013AC0
:1039E00043EA0223C5F88C30236813F0080F2DD06A
:1039F0005648D0F8882002F070624FF0706191FA5A
:103A0000A1F3B3FA83F3DA40236947F6C07595FA58
:103A1000A5F5B5FA85F5AB4091FAA1F1B1FA81F1BE
:103A20008A401343A1694FF0E04292FAA2F2B2FA3F
:103A300082F201FA02F21343C0F88830D0F88C30D9
:103A400023F44033626A1343C0F88C30404B0122A8
:103A50001A60FEF7DBFA05463C4B1B6813F0005F6B
:103A60007FF40BAFFEF7D2FA401B0228F4D90320F3
:103A700012E700230193354B1A6C42F080521A640E
:103A80001B6C03F080530193019B324A136843F48B
:103A900080731360FEF7BAFA05462E4B1B6813F4C9
:103AA000807F06D1FEF7B2FA401B0228F5D9032029
:103AB000F2E6264B1B6F13F4407312D0A26A02F495
:103AC00040729A420DD0214B1A6F22F44072224963
:103AD00001200860002008601A671B6F13F0010FB7
:103AE00012D1A36A03F44072B2F5407F1DD0174A89
:103AF000936823F4F813936014490B6FA26AC2F31E
:103B00000B0213430B67BDE6FEF780FA05460F4B29
:103B10001B6F13F0020FE4D1FEF778FA401B41F25D
:103B200088339842F3D90320B6E608498A6822F41C
:103B3000F81223F0704323F4407313438B60DBE7E8
:103B40000020A9E6E01147426800474200380240E1
:103B50007000474200700040400E474238B50446AE
:103B60000268D36823F0A003D360FEF74FFA05463E
:103B70002368DB6813F0200F07D1FEF747FA401BDC
:103B8000B0F57A7FF4D9032000E0002038BD38B5C5
:103B90000368DA6812F0400F01D0002038BD0446F7
:103BA0004FF0FF32DA60FEF731FA05462368DB6832
:103BB00013F0400F07D1FEF729FA431BB3F57A7FC4
:103BC000F4D90320EAE70020E8E7002848D038B518
:103BD0000446437F93B1022363772368CA225A6263
:103BE000236853225A622046FFF7D1FF50B1236861
:103BF000FF225A6204236377012038BD03770BF05C
:103C0000E5FCE8E72268936823F4700323F040039F
:103C1000936021688A68636825692B4365692B4333
:103C200013438B602368E2681A6122681369A168F4
:103C300043EA014313612268D36823F08003D36011
:103C40002268136C23F4802313642268136CA16927
:103C50000B4313642368FF225A6201236377CCE786
:103C6000012070470023092803D901330A38C0B264
:103C7000F9E71B01DBB218437047F8B5037F012B4E
:103C800078D004460E460123037702234377002AA7
:103C900047D103689B6813F0400F01D10023CB701C
:103CA0003078FFF7DFFF05047078FFF7DBFF45EAA8
:103CB0000025B078FFF7D6FF0543F07845EA0045C8
:103CC0002368CA225A62236853225A622046FFF7A9
:103CD0005EFF0746002836D1236805F07F3525F0C2
:103CE000FE451D602268936823F480239360216859
:103CF0008B68F2683069024313438B602268D36893
:103D000023F08003D36023689B6813F0200F23D037
:103D10002368FF225A620123637700232377384602
:103D2000F8BD03689B6813F0400F01D10023CB70EE
:103D300035787078000240EA0540B5782843F57878
:103D400040EA0545BCE72368FF225A6204236377F3
:103D5000002323770127E2E72046FFF7FFFE002834
:103D6000D6D02368FF225A62042363770023237787
:103D70000127D4E70227D2E770B5037F012B66D075
:103D800004460E4601230377022343773AB94B7862
:103D900013F0100F03D003F0EF030A334B70002A27
:103DA00033D1F078FFF75EFF05047078FFF75AFF14
:103DB00045EA0025B078FFF755FF0543307845EA1E
:103DC00040352368CA225A62236853225A62204629
:103DD000FFF7DDFE064618BB236825F07F4525F07A
:103DE000C0055D602268D36823F08003D360236838
:103DF0009B6813F0200F1CD02368FF225A62012316
:103E0000637700232377304670BD7078B578F378F8
:103E1000000240EA03402843357840EA4535D0E7C0
:103E20002368FF225A620423637700232377012645
:103E3000E9E72046FFF792FE0028DDD02368FF2245
:103E40005A6204236377002323770126DBE70226E7
:103E5000D9E7030903EB830300F00F0000EB4300F5
:103E6000C0B2704770B50C4603689B6A4B6003682C
:103E70001B69C3F30E038B6003681D68C5F306411D
:103E8000C5F305402070C5F30626667005F07F0572
:103E9000A57001F04003E37052B9FFF7DAFF20701C
:103EA0003046FFF7D6FF60702846FFF7D2FFA070BC
:103EB000002070BD70B503685B68C3F30740C8702D
:103EC000C3F304264E7003F03F058D70C3F34233F5
:103ED0000B705AB90C46FFF7BCFFE0703046FFF795
:103EE000B8FF60702846FFF7B4FFA070002070BDD7
:103EF000037F012B7CD030B482B0012303770223EF
:103F000043770368CA245C62036853245C620568D3
:103F1000AB6813F4806F13D0364B1B68364CA4FB90
:103F20000343DB0A4FF47A7404FB03F30193019B10
:103F30005C1E0194002B48D0EB6813F0040FF6D1FF
:103F4000AB6823F48063AB602A4B1B682A4CA4FB4C
:103F50000343DB0A4FF47A7404FB03F30193019BE0
:103F60005C1E0194002B38D00368DC6814F0040F49
:103F7000F5D0596101688B6823F007038B600168F5
:103F80008B681A438A601D4B1A6842F480021A60DB
:103F90009A6842F480029A600268D368DBB263F4E4
:103FA0009063D3600268936843F48043936002682F
:103FB000936843F4806393600368FF225A6201238D
:103FC00043770023037718460FE0FF236B62032338
:103FD000437700220277184607E00368FF225A62FF
:103FE0000323437700220277184602B030BC7047A3
:103FF0000220704700000020D34D6210003C0140B9
:1040000000283BD010B504460023836290F851305D
:10401000002B2ED0022384F851302268136823F03D
:10402000400313606368A2681343E2681343226984
:10403000134362691343A26902F400721343E269F5
:104040001343226A1343A16A22680B431360638BF4
:1040500003F00403616A22680B4353602268D3694A
:1040600023F40063D36100206065012384F851309C
:1040700010BD80F850300BF0B7FACBE70120704745
:1040800028B370B50E461546044690F84930CBB1BA
:10409000214651F8080B00F033FCA2683146206835
:1040A00000F068FC236BA2682946606800F08EFC73
:1040B0002268A16852F8213043F0010342F8213010
:1040C000002070BD80F848300BF0BCFBE0E7012019
:1040D0007047000070B4036A23F001030362036AAF
:1040E0004268846924F073040D6845EA040623F0ED
:1040F00002048B6823430C4DA84202D00B4CA04213
:104100000BD123F00803CD682B4323F0040322F4E2
:1041100040724D6915438A692A43426086614A6844
:104120004263036270BC704700000140000401401C
:1041300030B4036A23F480730362036A4268C4697B
:1041400024F073040D682C4323F400738D6843EA54
:1041500005230E4DA84203D005F58065A8420ED177
:1041600023F40063CD6843EA052323F4806322F43B
:1041700040524D6942EA05128D6942EA05124260D9
:10418000C4614A68C263036230BC704700000140EA
:1041900030B4036A23F480530362036A4468C2693B
:1041A00022F4E6420D6842EA052223F400538D68AA
:1041B00043EA0533094DA84203D005F58065A842BE
:1041C00004D124F480444D6944EA85144460C261FA
:1041D0004A680264036230BC704700BF00000140BF
:1041E0007047000003682E4A904212D0B0F1804F11
:1041F0000FD0A2F57C4290420BD002F58062904233
:1042000007D002F58062904203D002F578429042D6
:1042100003D123F070034A681343214A90422AD005
:10422000B0F1804F27D0A2F57C42904223D002F516
:10423000806290421FD002F5806290421BD002F54E
:104240007842904217D002F57052904213D002F596
:10425000806290420FD002F5806290420BD0A2F5AE
:104260009832904207D002F58062904203D002F566
:104270008062904203D123F44073CA681343036001
:104280008B68C3620B688362054B984203D003F5C9
:104290008063984201D10B69036301234361704736
:1042A00000000140B0B110B5044690F8393063B158
:1042B000022384F83930214651F8040BFFF792FFAE
:1042C000012384F83930002010BD80F83830FFF722
:1042D00087FFEDE701207047B0B110B5044690F8B4
:1042E000393063B1022384F83930214651F8040B88
:1042F000FFF778FF012384F83930002010BD80F8E3
:1043000038300BF0C9F9EDE70120704730B4036A8B
:1043100023F010030362036A4468826922F4E642D0
:104320000D6842EA052223F020038D6843EA051355
:104330000E4DA84203D005F58065A8420ED123F0AA
:104340008003CD6843EA051323F0400324F440645E
:104350004D6944EA85048D6944EA850444608261BC
:104360004A688263036230BC704700BF00000140AE
:1043700090F83830012B28D010B50446012380F87E
:104380003830022380F839300C2A0BD8DFE802F0ED
:10439000070A0A0A110A0A0A150A0A0A1900006815
:1043A000FFF798FE012384F83930002084F83800A4
:1043B00010BD0068FFF7AAFFF4E70068FFF7B8FE3A
:1043C000F0E70068FFF7E4FEECE70220704738B53D
:1043D00090F83830012B66D004460D46012380F852
:1043E0003830022380F839300C2A1AD8DFE802F07E
:1043F00007191919201919193419191947000068D2
:10440000FFF768FE2268936943F00803936122680E
:10441000936923F0040393612268936929690B432C
:104420009361012384F83930002084F8380038BDC6
:104430000068FFF76BFF2268936943F400639361A0
:104440002268936923F480639361226893692969E0
:1044500043EA01239361E4E70068FFF769FE2268FD
:10446000D36943F00803D3612268D36923F00403BE
:10447000D3612268D36929690B43D361D1E700680E
:10448000FFF786FE2268D36943F40063D361226894
:10449000D36923F48063D3612268D369296943EA2D
:1044A0000123D361BDE70220C1E710B4012303FA61
:1044B00001F4036A23EA04030362036A02FA01F1C6
:1044C0000B4303625DF8044B7047000010B50446CF
:1044D00001220068FFF7E9FF2368094A934203D0ED
:1044E00002F58062934203D15A6C42F400425A644E
:1044F0002268136843F001031360002010BD00BF61
:104500000000014010B5044600220068FFF7CDFF0F
:104510002368154A934217D002F58062934213D064
:104520002368196A41F21112114208D1196A40F246
:104530004442114203D11A6822F001021A60012399
:1045400084F83930002010BD196A41F2111211426D
:10455000E6D1196A40F244421142E1D15A6C22F488
:1045600000425A64DCE700BF000001402DE9F84337
:10457000044601680A6922F44052C36813430B6180
:104580000168CA6822F4164222F00C0283680069AE
:10459000034360690343E06903431343CB6021682D
:1045A0004A6922F44072A36913434B61E369B3F58E
:1045B000004F60D02368B84A934200F0148102F59E
:1045C0008062934200F00F81FFF720F900EB80003A
:1045D00000EB80006568AD00B0FBF5F5AF4EA6FBC3
:1045E00005356D092F01FFF711F900EB800505EB8B
:1045F000850563689B00B5FBF3F9FFF707F900EB4E
:10460000800000EB80006568AD00B0FBF5F5A6FB0F
:1046100005356D094FF0640808FB15952D013235FD
:10462000A6FB05356D0905F0F0053D44FFF7EEF8F2
:1046300000EB800000EB80006768BF00B0FBF7F77D
:10464000FFF7E4F800EB800000EB800063689B005C
:10465000B0FBF3F0A6FB0030400908FB10784FEAEE
:10466000081808F13208A6FB0836C6F3431623687B
:104670002E449E600DE12368874A93425BD002F589
:104680008062934257D0FFF7C1F800EB800000EB47
:10469000800065686D00B0FBF5F5804EA6FB053522
:1046A0006D092F01FFF7B2F800EB800000EB8000EE
:1046B00065686D00B0FBF5F9FFF7A8F800EB800026
:1046C00000EB800065686D00B0FBF5F5A6FB0535D5
:1046D0006D094FF0640808FB1595ED003235A6FB17
:1046E00005356D096D0005F4F8753D44FFF78EF84A
:1046F00000EB800000EB800067687F00B0FBF7F7FD
:10470000FFF784F800EB800000EB800063685B003B
:10471000B0FBF3F3A6FB03235B0908FB13784FEA16
:10472000C80808F13208A6FB0836C6F3421623680B
:104730002E449E60ADE0FFF77FF800EB800000EBB9
:10474000800065686D00B0FBF5F5544EA6FB05359D
:104750006D092F01FFF770F800EB800000EB80007F
:1047600065686D00B0FBF5F9FFF766F800EB8000B7
:1047700000EB800065686D00B0FBF5F5A6FB053524
:104780006D094FF0640808FB1595ED003235A6FB66
:1047900005356D096D0005F4F8753D44FFF74CF8DB
:1047A00000EB800000EB800067687F00B0FBF7F74C
:1047B000FFF742F800EB800000EB800063685B00CD
:1047C000B0FBF3F3A6FB03235B0908FB13784FEA66
:1047D000C80808F13208A6FB0836C6F3421623685B
:1047E0002E449E6055E0FFF727F800EB800000EBB9
:1047F00080006568AD00B0FBF5F5284EA6FB0535D9
:104800006D092F01FFF718F800EB800505EB850512
:1048100063689B00B5FBF3F9FFF70EF800EB80002F
:1048200000EB80006568AD00B0FBF5F5A6FB053533
:104830006D094FF0640808FB15952D013235A6FB74
:1048400005356D0905F0F0053D44FEF7F5FF00EB79
:10485000800000EB80006768BF00B0FBF7F7FEF751
:10486000EBFF00EB800000EB800063689B00B0FB77
:10487000F3F0A6FB0030400908FB10784FEA081857
:1048800008F13208A6FB0836C6F3431623682E4407
:104890009E60BDE8F88300BF001001401F85EB510A
:1048A00058B310B5044690F839300BB3242384F87C
:1048B00039302268D36823F40053D3602046FFF7D1
:1048C00055FE2268136923F49043136122685369EB
:1048D00023F02A0353612268D36843F40053D36062
:1048E0000020E063202384F8393084F83A3010BD8A
:1048F00080F838300AF02CFFD8E70120704700001C
:1049000070B40C6850F82430194E1E404A688D6807
:1049100042EA0503CA6813430A6913434A69134309
:104920008A691343CA6913430A6A13434A6A1343E1
:104930008A6A1343CA6A1343CA6B13430A6B13434D
:104940004A6B13433343082D08D040F824304B6B97
:10495000B3F5801F05D0002070BC704743F04003C2
:10496000F3E70A68002AF6D0026813430360F2E70F
:104970008000E0FF30B4013250F8224004F040449F
:104980000B684D6843EA05138D6843EA0523CD683B
:1049900043EA05430D69013D43EA05534D69023D74
:1049A00043EA05638D692B43234340F822300368B3
:1049B00013F4801F07D0436823F470030A69013A97
:1049C00043EA02534360002030BC7047B3F5804F88
:1049D00005D06FF0704340F822300020704730B4AB
:1049E00050F82230094C1C400B684D6843EA05130F
:1049F0008D6843EA0523CD6843EA054389690B4383
:104A0000234340F82230002030BC70470000F0CF34
:104A1000002301330D4A934214D80D4A1269002A2B
:104A2000F7DA0B4A136943F00103136100230133E2
:104A3000064A934208D8064A126912F0010FF6D1CD
:104A4000002070470320704703207047400D03008B
:104A50000000044008B5434AD36843F04003D360E4
:104A6000FEF7CEFE404B0344404A934210D83D4AE5
:104A7000D36843F47053D360FFF7CAFF394B4FF448
:104A800080329A633A4BDB68012B65D0002008BD69
:104A9000384B0344384A934205D8324AD36843F42A
:104AA0006053D360E8E7A0F57403A3F51053334ACD
:104AB000934205D82B4AD36843F45053D360DBE7C5
:104AC000A0F18373A3F5E7432D4A934205D2254A0B
:104AD000D36843F44053D360CEE72A4B03442A4AB9
:104AE000934205D81F4AD36843F43053D360C3E7D9
:104AF000264B0344264A934205D21A4AD36843F40C
:104B00002053D360B8E7234B0344234A934205D292
:104B1000144AD36843F41053D360ADE7A0F1B773E0
:104B2000A3F558531D4A934205D20E4AD36843F465
:104B30000053D360A0E71A4B03441A4A934205D2AC
:104B4000084AD36843F4E053D36095E7054AD36835
:104B500043F4C053D3608FE7024A936843F02003C5
:104B6000936093E700000440405327FFFF340C009C
:104B700080050120401E1BFF3F420F007F4F1200A7
:104B800020D6130060B6E5FE5FE3160000D3CEFE2C
:104B900040771B00C05BB3FEC09121002075380038
:104BA000E05459FEE09C4100034A936843F001033E
:104BB00093600020704700BF00000440034A9368E0
:104BC00023F0010393600020704700BF0000044001
:104BD00008B50B4AD36823F0C043D360012806D040
:104BE00048B9074AD36843F08043D36003E0D368F1
:104BF00043F00053D3603220FDF70EFA002008BDC9
:104C000000000440800140F02000084B18610023A0
:104C10000133074A934206D8044A126912F0200F62
:104C2000F6D1002070470320704700BF0000044009
:104C3000400D0300084B10221A6100230133074A7C
:104C4000934206D8044A126912F0100FF6D10020E0
:104C500070470320704700BF00000440400D030070
:104C6000034BD3F800281043C3F800080020704716
:104C70000000044010B5534B9A6B42F400229A6333
:104C80000022C3F8002ED3F80028C3F800284E4BAA
:104C90005B69012B0AD14C4B9B681BB90020FFF7C5
:104CA000DFFF06E00120FFF7DBFF02E00320FFF754
:104CB000D7FF1020FFF7A6FFFFF7BCFF414B0022F4
:104CC000C3F81028C3F814284FF6FF71A3F818187A
:104CD000A3F81A18A3F81C28A3F81E2811E002F163
:104CE00048035B014FF09040C850530103F18043EB
:104CF00003F580230021C3F81019FF21C3F8081918
:104D00000132314B196891420DD902F148035B0120
:104D10002C49CB58002BE2DB02F148035B01294907
:104D20000020C850E1E7002211E002F158035B01C6
:104D30004FF09044C450530103F1804303F58023A6
:104D40000020C3F8100BFF20C3F8080B013291427A
:104D50000DD902F158035B011A48C358002BE4DB5C
:104D600002F158035B0117480024C450E3E7154AD9
:104D7000D2F8103823F48073C2F81038124BDB6875
:104D8000012B11D00F4A002191616FF080415161D8
:104D90001BB9936943F0100393610A4A91690B4B65
:104DA0000B439361002010BD1146094AC1F8302819
:104DB000D1F8302842F4803242F00302C1F83028A2
:104DC000E0E700BF000004408005012000383C807F
:104DD0000001800030B44378012B25D02549B1F87B
:104DE0001E389BB204780122A24013439BB2A1F863
:104DF0001E38037803F1580252018A5812F4004F0A
:104E00000FD10C4658335B01CA588168C1F30A01BF
:104E1000C07841EA80410A4342F0805242F40042A5
:104E2000E250002030BC7047124CB4F81C389BB2E2
:104E3000017801228A4013439BB2A4F81C380578FC
:104E400005F148014901635813F4004FE9D105F118
:104E50004801490163588268C2F30A02C07842EAF5
:104E6000804242EA8552134343F0805343F40043A7
:104E70006350D6E70000044010B44378012B1ED0E5
:104E80001D4AD2F83C380478012101FA04F423EADF
:104E90000443C2F83C38B2F81E389BB20478A140F3
:104EA00023EA0103A2F81E38037858335B01D15876
:104EB00021F40041D15000205DF8044B70470E4AA8
:104EC000D2F83C380178012404FA01F189B223EACE
:104ED0000101C2F83C18B2F81C389BB201788C4032
:104EE00023EA0403A2F81C38037848335B01D15845
:104EF00021F40041D150DEE70000044010B44378B3
:104F0000012B3BD004785B4B03EB4414D4F8102BFB
:104F1000D20CD204C4F8102B027803EB4213D3F85E
:104F2000102B22F0FF5222F4C012C3F8102B436959
:104F30000BB18368436102784E4B03EB4212D2F807
:104F4000104B44F40024C2F8104B027803EB4213D8
:104F5000D3F8102B8468C4F312042243C3F8102B37
:104F600001297CD00378434958335B01CA5842F089
:104F70000442CA5000205DF8044B7047436963BB8C
:104F800004783C4B03EB4414D4F8102922F0FF5270
:104F900022F4C012C4F81029027803EB4212D2F8AE
:104FA000104944F40024C2F81049027803EB42137C
:104FB000D3F81029D20CD204C3F8102901293CD00F
:104FC0004369002B42D02B49D1F8343804780122B0
:104FD000A2401343C1F8343838E00478254B03EB82
:104FE0004414D4F81029D20CD204C4F81029027841
:104FF00003EB4213D3F8102922F0FF5222F4C0121F
:10500000C3F81029426983689A4200D94361027843
:10501000184B03EB4212D2F8104944F40024C2F8B2
:105020001049027803EB4213D3F810294469C4F302
:1050300012042243C3F81029C0E7037802695B0118
:1050400003F1804303F58023C3F814290378094949
:1050500048335B01CA5842F00442CA508AE7C2682A
:1050600003785B0103F1804303F58023C3F8142B1D
:1050700078E700BF000004401C4BDB68002B32D1F6
:1050800003329208090301F1804303F582230F2ABA
:1050900026D9016819604168196081681960C16882
:1050A0001960016919604169196081691960C169F4
:1050B0001960016A1960416A1960816A1960C16AE0
:1050C0001960016B1960416B1960816B1960C16BCC
:1050D0001960103A4030DAE750F8042B1A600A469B
:1050E000511E002AF8D10020704700BF8005012022
:1050F00070B54378012B3ED00478984B03EB4414F1
:10510000D4F8102BD20CD204C4F8102B027803EB85
:105110004213D3F8102B22F0FF5222F4C012C3F82E
:10512000102B4369002B40F0D68002788B4B03EBA9
:105130004212D2F8104B8568C5F312052C43C2F811
:10514000104B027803EB4213D3F8102B42F40022E9
:10515000C3F8102B012900F0DE80C378012B00F08A
:10516000E48003787D4958335B01CA5842F0044219
:10517000CA50002070BD43697BBB0478774B03EBBA
:105180004414D4F8102922F0FF5222F4C012C4F8BB
:105190001029027803EB4212D2F8104944F400249B
:1051A000C2F81049027803EB4213D3F81029D20C4D
:1051B000D204C3F81029012957D0C378012B5DD040
:1051C0004369002B5AD06549D1F83438047801225C
:1051D000A2401343C1F8343850E004785F4B03EB2E
:1051E0004414D4F81029D20CD204C4F8102904783D
:1051F00003EB4414D4F8102922F0FF5222F4C01219
:10520000C4F81029047803EB4414D4F81059426907
:1052100086683244013AB2FBF6F2514E06EAC242C7
:105220002A43C4F81029027803EB4213D3F810295B
:105230004469C4F312042243C3F81029C378012B34
:10524000B9D10278454B03EB4212D2F8104924F051
:10525000C044C2F81049027803EB4213D3F8102976
:1052600042F00052C3F81029A5E7037802695B01F8
:1052700003F1804303F58023C3F81429C378012B7D
:1052800011D00378354948335B01CA5842F00442D3
:10529000CA50C378012B7FF46CAF828A0178C06852
:1052A000FFF7EAFE65E72D4BD3F8083813F4807F4B
:1052B00008D10378294948335B01CA5842F00052AB
:1052C000CA50DEE70378254948335B01CA5842F0EB
:1052D0008052CA50D5E782681344013BB3FBF2F316
:1052E00004781E4A02EB4414D4F8105B1C4E06EA04
:1052F000C3463543C4F8105B047802EB4412D2F87D
:10530000105B84689BB204FB03F3C3F312032B43CB
:10531000C2F8103B1EE7C26803785B0103F18043CB
:1053200003F58023C3F8142B17E70C4BD3F8083888
:1053300013F4807F08D10378084958335B01CA58B9
:1053400042F00052CA500CE70378044958335B011D
:10535000CA5842F08052CA5003E700BF0000044020
:105360000000F81F0331890800238B4205D2034A4D
:10537000126840F8042B0133F7E77047001004402F
:105380004378012B17D0037803F1580252011549D5
:105390008A58002A05DB58335B01CA5822F0804244
:1053A000CA5003780F4958335B01CA5842F40012BF
:1053B000CA5000207047037803F14802520109499E
:1053C0008A58002A05DB48335B01CA5822F0804224
:1053D000CA500378034948335B01CA5842F40012AB
:1053E000CA50E6E7000004404378012B0ED0037852
:1053F000154958335B01CA5822F40012CA50C378C9
:10540000023BDBB2012B16D90020704703780E490E
:1054100048335B01CA5822F40012CA50C378023BD9
:10542000DBB2012BF0D8037848335B01CA5842F055
:105430008052CA50E8E7037858335B01CA5842F0FB
:105440008052CA50E0E700BF0000044010B50022BF
:105450000AE0530103F1804303F58023FF21C3F8E1
:105460000819C3F8081B01320E2AF2D90B4B4FF66C
:10547000FF72A3F81828A3F81A280024C3F81048CC
:10548000C3F81448A3F81C48A3F81E48FFF7D2FB42
:105490001020FFF7B7FB204610BD00BF00000440FE
:1054A000084BD3F8002822F4FE62C3F80028D3F892
:1054B0000028000100F4FE601043C3F8000800203B
:1054C000704700BF0000044008B5064AD2F804380F
:1054D00023F00203C2F804380320FCF79DFD0020EE
:1054E00008BD00BF0000044008B5064AD2F80438E1
:1054F00043F00203C2F804380320FCF78DFD0020BE
:1055000008BD00BF000004400F4AD2F8003923F460
:10551000FF6323F00703C2F80039D2F8083803F01C
:105520000603042B08D0084AD2F8043843F48073E9
:10553000C2F8043800207047D2F8003943F0030362
:10554000C2F80039EFE700BF00000440104B002212
:10555000C3F8102BD3F8102B42F40022C3F8102B01
:10556000D3F8102B42F01802C3F8102BD3F8102BED
:1055700042F0C042C3F8102B012801D00020704730
:10558000C3F8141B4FF08022C3F8002BF6E700BFCE
:105590000000044008B5402202218120FDF7FCFCF8
:1055A000402202210120FDF7F7FC0822032182207E
:1055B000FDF7F2FC0AF0B4FA064B0022C3F81422FD
:1055C000C3F818224022D3F804120120FDF730FD61
:1055D00008BD00BF44FB002008B58120FDF706FD93
:1055E0000120FDF703FD8220FDF700FD0AF0A6FA79
:1055F00008BD000038B50446037813F0600221D0DE
:10560000202A22D1C288BAB113F0800F0AD1437880
:10561000114880F80032E38880F80132E18801F017
:10562000C3F812E00C4D294640780AF089FAE18867
:10563000284601F09FF808E00022014640780AF071
:105640007FFA02E043780A2B01D0002038BD012107
:10565000024801F08FF8F8E744FB0020FC0200202C
:105660000020024BC3F81402704700BF44FB002027
:1056700008B5FDF70BFD054BC3F80C0203F50371EC
:10568000D3F804020AF0A4FAC0B208BD44FB00201B
:10569000094B93F80002FF2801D10020704710B594
:1056A0001C4693F8012219460AF04AFAFF2384F8AF
:1056B0000032002010BD00BF44FB0020034BC3F8A4
:1056C0000802C3F810120020704700BF44FB0020FE
:1056D000024BC3F804020020704700BF44FB0020C7
:1056E000034BD3F81402003818BF0120704700BFE5
:1056F00044FB002008B5094BD3F814320BB101204C
:1057000008BD064B0122C3F81422D3F81022D3F8A7
:1057100008128120FDF7C6FC0020F1E744FB0020C1
:1057200008B54022034BD3F804120120FDF780FC9A
:10573000002008BD44FB002008B5402202210320C0
:10574000FDF72AFC402202218320FDF725FC00F012
:10575000AFF8002008BD08B50320FDF747FC832003
:10576000FDF744FC00F0CEF8002008BD38B5044633
:10577000037813F060052ED0202D55D14278FE2AF3
:1057800005D0FF2A17D000F0DFFD02254DE042884A
:1057900062B9C288012A09D113F0800F06D02448CB
:1057A00000250560012100F0E5FF3EE0204600F005
:1057B000CBFD022539E0428842B9C28832B913F0E4
:1057C000800F03D100F08EF800252EE0204600F077
:1057D000BBFD022529E043780A2B16D00B2B19D0EC
:1057E000012B22D10079FDF7D3FC2079FDF7FEFBD8
:1057F00094F90430002B11DB402202210320FDF735
:10580000CBFB207900F026F90FE00121094800F0D8
:10581000B1FF0AE08278064B5A6006E0402202217E
:105820008320FDF7B9FBECE70025284638BD00BF13
:1058300060FD002064FD002008B50E4B93F81C327B
:1058400033B90C4BD3F8183213B10A4B5B7A3BB126
:105850008320FDF751FC074B5B7A022B04D008BD77
:105860000320FDF749FCF3E71F2203490320FDF75E
:10587000DFFBF4E760FD002070FF002008B50B4B54
:10588000D3F81822914228BF11468AB2D3F83812B1
:10589000891AC3F83812002183F83C1204211972C6
:1058A00001468320FDF7FEFB08BD00BF60FD002020
:1058B00010B50B4C00232372637284F8613284F8B4
:1058C000603209F043F80320FDF762FC8320FDF706
:1058D0005FFC1F2204F504710320FDF7A9FB10BD36
:1058E00060FD002008B5064900230B7201234B72AE
:1058F0001F2201F504710320FDF79AFB08BD00BFCC
:1059000060FD0020014B00221A72704760FD0020EC
:1059100010B50A4C0A4BC4F8303284F83C0200231C
:1059200023720D2204F50C718320FDF7BBFB1F22AF
:1059300004F504710320FDF77BFB10BD60FD002022
:105940005553425308B50B4B1B7A022B08D006D394
:10595000033BDBB2012B02D80020FFF7D9FF08BDC3
:10596000054800F03BFB0028F9DA0120FFF7D0FFE3
:10597000F5E700BF60FD00207FFF002008B5264B43
:10598000D3F81422C3F83422D3F81822C3F83822EB
:105990000320FDF77BFB1F2805D11F4BD3F81022F6
:1059A0001E4B9A4209D02021052000F069F91A4BBC
:1059B00002225A72FFF740FF08BD174B93F81D32C1
:1059C000012BF0D8144B93F81E32002BEBD0102B88
:1059D000E9D8134800F002FB00280DDB0E4B1B7AC0
:1059E000013BDBB2022BE7D90B4B598979B103F1AB
:1059F0000C00FFF743FFDFE7074B1B7A052B02D0B4
:105A0000FFF71AFFD8E70120FFF782FFD4E7002055
:105A1000FFF77EFFD0E700BF60FD002055534243F3
:105A20007FFF002008B5094B1B7A13B1012B03D06F
:105A300008BDFFF7A3FFFBE7054800F0CFFA0028F9
:105A4000F6DA0120FFF764FFF2E700BF60FD0020F7
:105A50007FFF002008B50A4B5B7A022B03D010F0C1
:105A6000800F07D108BD8320FDF746FB044B0022C1
:105A70005A72F7E7012BF5D00120FFF749FFF1E754
:105A800060FD0020437813F0010F08D10C4B1A7908
:105A90000532037993420ED91346094801E00723E2
:105AA0000848094A538143B1013B9BB2C15C064A95
:105AB0001A441173F7E70248F3E70020704700BF6C
:105AC00018E102089CDA020860FD00200823074A5A
:105AD000538106E0013B9BB2054AD15C034A1A445C
